{
	"Sessió 1/03_CalculadoraBasica.sol": {
		"CalculadoraBasica": {
			"abi": [
				{
					"inputs": [],
					"name": "historialOperacions",
					"outputs": [
						{
							"internalType": "uint256",
							"name": "",
							"type": "uint256"
						}
					],
					"stateMutability": "view",
					"type": "function"
				},
				{
					"inputs": [
						{
							"internalType": "uint256",
							"name": "a",
							"type": "uint256"
						},
						{
							"internalType": "uint256",
							"name": "b",
							"type": "uint256"
						}
					],
					"name": "multiplicar",
					"outputs": [
						{
							"internalType": "uint256",
							"name": "",
							"type": "uint256"
						}
					],
					"stateMutability": "nonpayable",
					"type": "function"
				},
				{
					"inputs": [],
					"name": "obtenirHistorial",
					"outputs": [
						{
							"internalType": "uint256",
							"name": "",
							"type": "uint256"
						}
					],
					"stateMutability": "view",
					"type": "function"
				},
				{
					"inputs": [],
					"name": "obtenirUltimResultat",
					"outputs": [
						{
							"internalType": "uint256",
							"name": "",
							"type": "uint256"
						}
					],
					"stateMutability": "view",
					"type": "function"
				},
				{
					"inputs": [],
					"name": "resetear",
					"outputs": [],
					"stateMutability": "nonpayable",
					"type": "function"
				},
				{
					"inputs": [
						{
							"internalType": "uint256",
							"name": "a",
							"type": "uint256"
						},
						{
							"internalType": "uint256",
							"name": "b",
							"type": "uint256"
						}
					],
					"name": "restar",
					"outputs": [
						{
							"internalType": "uint256",
							"name": "",
							"type": "uint256"
						}
					],
					"stateMutability": "nonpayable",
					"type": "function"
				},
				{
					"inputs": [
						{
							"internalType": "uint256",
							"name": "a",
							"type": "uint256"
						},
						{
							"internalType": "uint256",
							"name": "b",
							"type": "uint256"
						}
					],
					"name": "sumar",
					"outputs": [
						{
							"internalType": "uint256",
							"name": "",
							"type": "uint256"
						}
					],
					"stateMutability": "nonpayable",
					"type": "function"
				},
				{
					"inputs": [],
					"name": "ultimResultat",
					"outputs": [
						{
							"internalType": "uint256",
							"name": "",
							"type": "uint256"
						}
					],
					"stateMutability": "view",
					"type": "function"
				}
			],
			"devdoc": {
				"kind": "dev",
				"methods": {},
				"version": 1
			},
			"evm": {
				"assembly": "    /* \"Sessi\\xc3\\xb3 1/03_CalculadoraBasica.sol\":61:1112  contract CalculadoraBasica {... */\n  mstore(0x40, 0x80)\n  callvalue\n  dup1\n  iszero\n  tag_1\n  jumpi\n  revert(0x00, 0x00)\ntag_1:\n  pop\n  dataSize(sub_0)\n  dup1\n  dataOffset(sub_0)\n  0x00\n  codecopy\n  0x00\n  return\nstop\n\nsub_0: assembly {\n        /* \"Sessi\\xc3\\xb3 1/03_CalculadoraBasica.sol\":61:1112  contract CalculadoraBasica {... */\n      mstore(0x40, 0x80)\n      callvalue\n      dup1\n      iszero\n      tag_1\n      jumpi\n      revert(0x00, 0x00)\n    tag_1:\n      pop\n      jumpi(tag_2, lt(calldatasize, 0x04))\n      shr(0xe0, calldataload(0x00))\n      dup1\n      0xe13e85f7\n      gt\n      tag_11\n      jumpi\n      dup1\n      0xe13e85f7\n      eq\n      tag_7\n      jumpi\n      dup1\n      0xe44d50be\n      eq\n      tag_8\n      jumpi\n      dup1\n      0xfbf188a2\n      eq\n      tag_9\n      jumpi\n      dup1\n      0xfd61371e\n      eq\n      tag_10\n      jumpi\n      jump(tag_2)\n    tag_11:\n      dup1\n      0x0b141a58\n      eq\n      tag_3\n      jumpi\n      dup1\n      0x9341a733\n      eq\n      tag_4\n      jumpi\n      dup1\n      0x9aac1c65\n      eq\n      tag_5\n      jumpi\n      dup1\n      0xc0fea5d7\n      eq\n      tag_6\n      jumpi\n    tag_2:\n      revert(0x00, 0x00)\n        /* \"Sessi\\xc3\\xb3 1/03_CalculadoraBasica.sol\":360:589  function restar(uint256 a, uint256 b) public returns (uint256) {... */\n    tag_3:\n      tag_12\n      0x04\n      dup1\n      calldatasize\n      sub\n      dup2\n      add\n      swap1\n      tag_13\n      swap2\n      swap1\n      tag_14\n      jump\t// in\n    tag_13:\n      tag_15\n      jump\t// in\n    tag_12:\n      mload(0x40)\n      tag_16\n      swap2\n      swap1\n      tag_17\n      jump\t// in\n    tag_16:\n      mload(0x40)\n      dup1\n      swap2\n      sub\n      swap1\n      return\n        /* \"Sessi\\xc3\\xb3 1/03_CalculadoraBasica.sol\":101:129  uint256 public ultimResultat */\n    tag_4:\n      tag_18\n      tag_19\n      jump\t// in\n    tag_18:\n      mload(0x40)\n      tag_20\n      swap2\n      swap1\n      tag_17\n      jump\t// in\n    tag_20:\n      mload(0x40)\n      dup1\n      swap2\n      sub\n      swap1\n      return\n        /* \"Sessi\\xc3\\xb3 1/03_CalculadoraBasica.sol\":784:885  function obtenirUltimResultat() public view returns (uint256) {... */\n    tag_5:\n      tag_21\n      tag_22\n      jump\t// in\n    tag_21:\n      mload(0x40)\n      tag_23\n      swap2\n      swap1\n      tag_17\n      jump\t// in\n    tag_23:\n      mload(0x40)\n      dup1\n      swap2\n      sub\n      swap1\n      return\n        /* \"Sessi\\xc3\\xb3 1/03_CalculadoraBasica.sol\":1012:1109  function resetear() public {... */\n    tag_6:\n      tag_24\n      tag_25\n      jump\t// in\n    tag_24:\n      stop\n        /* \"Sessi\\xc3\\xb3 1/03_CalculadoraBasica.sol\":897:1000  function obtenirHistorial() public view returns (uint256) {... */\n    tag_7:\n      tag_26\n      tag_27\n      jump\t// in\n    tag_26:\n      mload(0x40)\n      tag_28\n      swap2\n      swap1\n      tag_17\n      jump\t// in\n    tag_28:\n      mload(0x40)\n      dup1\n      swap2\n      sub\n      swap1\n      return\n        /* \"Sessi\\xc3\\xb3 1/03_CalculadoraBasica.sol\":136:170  uint256 public historialOperacions */\n    tag_8:\n      tag_29\n      tag_30\n      jump\t// in\n    tag_29:\n      mload(0x40)\n      tag_31\n      swap2\n      swap1\n      tag_17\n      jump\t// in\n    tag_31:\n      mload(0x40)\n      dup1\n      swap2\n      sub\n      swap1\n      return\n        /* \"Sessi\\xc3\\xb3 1/03_CalculadoraBasica.sol\":601:772  function multiplicar(uint256 a, uint256 b) public returns (uint256) {... */\n    tag_9:\n      tag_32\n      0x04\n      dup1\n      calldatasize\n      sub\n      dup2\n      add\n      swap1\n      tag_33\n      swap2\n      swap1\n      tag_14\n      jump\t// in\n    tag_33:\n      tag_34\n      jump\t// in\n    tag_32:\n      mload(0x40)\n      tag_35\n      swap2\n      swap1\n      tag_17\n      jump\t// in\n    tag_35:\n      mload(0x40)\n      dup1\n      swap2\n      sub\n      swap1\n      return\n        /* \"Sessi\\xc3\\xb3 1/03_CalculadoraBasica.sol\":183:348  function sumar(uint256 a, uint256 b) public returns (uint256) {... */\n    tag_10:\n      tag_36\n      0x04\n      dup1\n      calldatasize\n      sub\n      dup2\n      add\n      swap1\n      tag_37\n      swap2\n      swap1\n      tag_14\n      jump\t// in\n    tag_37:\n      tag_38\n      jump\t// in\n    tag_36:\n      mload(0x40)\n      tag_39\n      swap2\n      swap1\n      tag_17\n      jump\t// in\n    tag_39:\n      mload(0x40)\n      dup1\n      swap2\n      sub\n      swap1\n      return\n        /* \"Sessi\\xc3\\xb3 1/03_CalculadoraBasica.sol\":360:589  function restar(uint256 a, uint256 b) public returns (uint256) {... */\n    tag_15:\n        /* \"Sessi\\xc3\\xb3 1/03_CalculadoraBasica.sol\":414:421  uint256 */\n      0x00\n        /* \"Sessi\\xc3\\xb3 1/03_CalculadoraBasica.sol\":447:448  b */\n      dup2\n        /* \"Sessi\\xc3\\xb3 1/03_CalculadoraBasica.sol\":442:443  a */\n      dup4\n        /* \"Sessi\\xc3\\xb3 1/03_CalculadoraBasica.sol\":442:448  a >= b */\n      lt\n      iszero\n        /* \"Sessi\\xc3\\xb3 1/03_CalculadoraBasica.sol\":434:486  require(a >= b, \"No es permeten resultats negatius\") */\n      tag_41\n      jumpi\n      mload(0x40)\n      0x08c379a000000000000000000000000000000000000000000000000000000000\n      dup2\n      mstore\n      0x04\n      add\n      tag_42\n      swap1\n      tag_43\n      jump\t// in\n    tag_42:\n      mload(0x40)\n      dup1\n      swap2\n      sub\n      swap1\n      revert\n    tag_41:\n        /* \"Sessi\\xc3\\xb3 1/03_CalculadoraBasica.sol\":517:518  b */\n      dup2\n        /* \"Sessi\\xc3\\xb3 1/03_CalculadoraBasica.sol\":513:514  a */\n      dup4\n        /* \"Sessi\\xc3\\xb3 1/03_CalculadoraBasica.sol\":513:518  a - b */\n      tag_44\n      swap2\n      swap1\n      tag_45\n      jump\t// in\n    tag_44:\n        /* \"Sessi\\xc3\\xb3 1/03_CalculadoraBasica.sol\":497:510  ultimResultat */\n      0x00\n        /* \"Sessi\\xc3\\xb3 1/03_CalculadoraBasica.sol\":497:518  ultimResultat = a - b */\n      dup2\n      swap1\n      sstore\n      pop\n        /* \"Sessi\\xc3\\xb3 1/03_CalculadoraBasica.sol\":529:548  historialOperacions */\n      0x01\n      0x00\n        /* \"Sessi\\xc3\\xb3 1/03_CalculadoraBasica.sol\":529:550  historialOperacions++ */\n      dup2\n      sload\n      dup1\n      swap3\n      swap2\n      swap1\n      tag_46\n      swap1\n      tag_47\n      jump\t// in\n    tag_46:\n      swap2\n      swap1\n      pop\n      sstore\n      pop\n        /* \"Sessi\\xc3\\xb3 1/03_CalculadoraBasica.sol\":568:581  ultimResultat */\n      sload(0x00)\n        /* \"Sessi\\xc3\\xb3 1/03_CalculadoraBasica.sol\":561:581  return ultimResultat */\n      swap1\n      pop\n        /* \"Sessi\\xc3\\xb3 1/03_CalculadoraBasica.sol\":360:589  function restar(uint256 a, uint256 b) public returns (uint256) {... */\n      swap3\n      swap2\n      pop\n      pop\n      jump\t// out\n        /* \"Sessi\\xc3\\xb3 1/03_CalculadoraBasica.sol\":101:129  uint256 public ultimResultat */\n    tag_19:\n      sload(0x00)\n      dup2\n      jump\t// out\n        /* \"Sessi\\xc3\\xb3 1/03_CalculadoraBasica.sol\":784:885  function obtenirUltimResultat() public view returns (uint256) {... */\n    tag_22:\n        /* \"Sessi\\xc3\\xb3 1/03_CalculadoraBasica.sol\":837:844  uint256 */\n      0x00\n        /* \"Sessi\\xc3\\xb3 1/03_CalculadoraBasica.sol\":864:877  ultimResultat */\n      sload(0x00)\n        /* \"Sessi\\xc3\\xb3 1/03_CalculadoraBasica.sol\":857:877  return ultimResultat */\n      swap1\n      pop\n        /* \"Sessi\\xc3\\xb3 1/03_CalculadoraBasica.sol\":784:885  function obtenirUltimResultat() public view returns (uint256) {... */\n      swap1\n      jump\t// out\n        /* \"Sessi\\xc3\\xb3 1/03_CalculadoraBasica.sol\":1012:1109  function resetear() public {... */\n    tag_25:\n        /* \"Sessi\\xc3\\xb3 1/03_CalculadoraBasica.sol\":1066:1067  0 */\n      0x00\n        /* \"Sessi\\xc3\\xb3 1/03_CalculadoraBasica.sol\":1050:1063  ultimResultat */\n      0x00\n        /* \"Sessi\\xc3\\xb3 1/03_CalculadoraBasica.sol\":1050:1067  ultimResultat = 0 */\n      dup2\n      swap1\n      sstore\n      pop\n        /* \"Sessi\\xc3\\xb3 1/03_CalculadoraBasica.sol\":1100:1101  0 */\n      0x00\n        /* \"Sessi\\xc3\\xb3 1/03_CalculadoraBasica.sol\":1078:1097  historialOperacions */\n      0x01\n        /* \"Sessi\\xc3\\xb3 1/03_CalculadoraBasica.sol\":1078:1101  historialOperacions = 0 */\n      dup2\n      swap1\n      sstore\n      pop\n        /* \"Sessi\\xc3\\xb3 1/03_CalculadoraBasica.sol\":1012:1109  function resetear() public {... */\n      jump\t// out\n        /* \"Sessi\\xc3\\xb3 1/03_CalculadoraBasica.sol\":897:1000  function obtenirHistorial() public view returns (uint256) {... */\n    tag_27:\n        /* \"Sessi\\xc3\\xb3 1/03_CalculadoraBasica.sol\":946:953  uint256 */\n      0x00\n        /* \"Sessi\\xc3\\xb3 1/03_CalculadoraBasica.sol\":973:992  historialOperacions */\n      sload(0x01)\n        /* \"Sessi\\xc3\\xb3 1/03_CalculadoraBasica.sol\":966:992  return historialOperacions */\n      swap1\n      pop\n        /* \"Sessi\\xc3\\xb3 1/03_CalculadoraBasica.sol\":897:1000  function obtenirHistorial() public view returns (uint256) {... */\n      swap1\n      jump\t// out\n        /* \"Sessi\\xc3\\xb3 1/03_CalculadoraBasica.sol\":136:170  uint256 public historialOperacions */\n    tag_30:\n      sload(0x01)\n      dup2\n      jump\t// out\n        /* \"Sessi\\xc3\\xb3 1/03_CalculadoraBasica.sol\":601:772  function multiplicar(uint256 a, uint256 b) public returns (uint256) {... */\n    tag_34:\n        /* \"Sessi\\xc3\\xb3 1/03_CalculadoraBasica.sol\":660:667  uint256 */\n      0x00\n        /* \"Sessi\\xc3\\xb3 1/03_CalculadoraBasica.sol\":700:701  b */\n      dup2\n        /* \"Sessi\\xc3\\xb3 1/03_CalculadoraBasica.sol\":696:697  a */\n      dup4\n        /* \"Sessi\\xc3\\xb3 1/03_CalculadoraBasica.sol\":696:701  a * b */\n      tag_52\n      swap2\n      swap1\n      tag_53\n      jump\t// in\n    tag_52:\n        /* \"Sessi\\xc3\\xb3 1/03_CalculadoraBasica.sol\":680:693  ultimResultat */\n      0x00\n        /* \"Sessi\\xc3\\xb3 1/03_CalculadoraBasica.sol\":680:701  ultimResultat = a * b */\n      dup2\n      swap1\n      sstore\n      pop\n        /* \"Sessi\\xc3\\xb3 1/03_CalculadoraBasica.sol\":712:731  historialOperacions */\n      0x01\n      0x00\n        /* \"Sessi\\xc3\\xb3 1/03_CalculadoraBasica.sol\":712:733  historialOperacions++ */\n      dup2\n      sload\n      dup1\n      swap3\n      swap2\n      swap1\n      tag_54\n      swap1\n      tag_47\n      jump\t// in\n    tag_54:\n      swap2\n      swap1\n      pop\n      sstore\n      pop\n        /* \"Sessi\\xc3\\xb3 1/03_CalculadoraBasica.sol\":751:764  ultimResultat */\n      sload(0x00)\n        /* \"Sessi\\xc3\\xb3 1/03_CalculadoraBasica.sol\":744:764  return ultimResultat */\n      swap1\n      pop\n        /* \"Sessi\\xc3\\xb3 1/03_CalculadoraBasica.sol\":601:772  function multiplicar(uint256 a, uint256 b) public returns (uint256) {... */\n      swap3\n      swap2\n      pop\n      pop\n      jump\t// out\n        /* \"Sessi\\xc3\\xb3 1/03_CalculadoraBasica.sol\":183:348  function sumar(uint256 a, uint256 b) public returns (uint256) {... */\n    tag_38:\n        /* \"Sessi\\xc3\\xb3 1/03_CalculadoraBasica.sol\":236:243  uint256 */\n      0x00\n        /* \"Sessi\\xc3\\xb3 1/03_CalculadoraBasica.sol\":276:277  b */\n      dup2\n        /* \"Sessi\\xc3\\xb3 1/03_CalculadoraBasica.sol\":272:273  a */\n      dup4\n        /* \"Sessi\\xc3\\xb3 1/03_CalculadoraBasica.sol\":272:277  a + b */\n      tag_56\n      swap2\n      swap1\n      tag_57\n      jump\t// in\n    tag_56:\n        /* \"Sessi\\xc3\\xb3 1/03_CalculadoraBasica.sol\":256:269  ultimResultat */\n      0x00\n        /* \"Sessi\\xc3\\xb3 1/03_CalculadoraBasica.sol\":256:277  ultimResultat = a + b */\n      dup2\n      swap1\n      sstore\n      pop\n        /* \"Sessi\\xc3\\xb3 1/03_CalculadoraBasica.sol\":288:307  historialOperacions */\n      0x01\n      0x00\n        /* \"Sessi\\xc3\\xb3 1/03_CalculadoraBasica.sol\":288:309  historialOperacions++ */\n      dup2\n      sload\n      dup1\n      swap3\n      swap2\n      swap1\n      tag_58\n      swap1\n      tag_47\n      jump\t// in\n    tag_58:\n      swap2\n      swap1\n      pop\n      sstore\n      pop\n        /* \"Sessi\\xc3\\xb3 1/03_CalculadoraBasica.sol\":327:340  ultimResultat */\n      sload(0x00)\n        /* \"Sessi\\xc3\\xb3 1/03_CalculadoraBasica.sol\":320:340  return ultimResultat */\n      swap1\n      pop\n        /* \"Sessi\\xc3\\xb3 1/03_CalculadoraBasica.sol\":183:348  function sumar(uint256 a, uint256 b) public returns (uint256) {... */\n      swap3\n      swap2\n      pop\n      pop\n      jump\t// out\n        /* \"#utility.yul\":88:205   */\n    tag_60:\n        /* \"#utility.yul\":197:198   */\n      0x00\n        /* \"#utility.yul\":194:195   */\n      0x00\n        /* \"#utility.yul\":187:199   */\n      revert\n        /* \"#utility.yul\":334:411   */\n    tag_62:\n        /* \"#utility.yul\":371:378   */\n      0x00\n        /* \"#utility.yul\":400:405   */\n      dup2\n        /* \"#utility.yul\":389:405   */\n      swap1\n      pop\n        /* \"#utility.yul\":334:411   */\n      swap2\n      swap1\n      pop\n      jump\t// out\n        /* \"#utility.yul\":417:539   */\n    tag_63:\n        /* \"#utility.yul\":490:514   */\n      tag_76\n        /* \"#utility.yul\":508:513   */\n      dup2\n        /* \"#utility.yul\":490:514   */\n      tag_62\n      jump\t// in\n    tag_76:\n        /* \"#utility.yul\":483:488   */\n      dup2\n        /* \"#utility.yul\":480:515   */\n      eq\n        /* \"#utility.yul\":470:533   */\n      tag_77\n      jumpi\n        /* \"#utility.yul\":529:530   */\n      0x00\n        /* \"#utility.yul\":526:527   */\n      0x00\n        /* \"#utility.yul\":519:531   */\n      revert\n        /* \"#utility.yul\":470:533   */\n    tag_77:\n        /* \"#utility.yul\":417:539   */\n      pop\n      jump\t// out\n        /* \"#utility.yul\":545:684   */\n    tag_64:\n        /* \"#utility.yul\":591:596   */\n      0x00\n        /* \"#utility.yul\":629:635   */\n      dup2\n        /* \"#utility.yul\":616:636   */\n      calldataload\n        /* \"#utility.yul\":607:636   */\n      swap1\n      pop\n        /* \"#utility.yul\":645:678   */\n      tag_79\n        /* \"#utility.yul\":672:677   */\n      dup2\n        /* \"#utility.yul\":645:678   */\n      tag_63\n      jump\t// in\n    tag_79:\n        /* \"#utility.yul\":545:684   */\n      swap3\n      swap2\n      pop\n      pop\n      jump\t// out\n        /* \"#utility.yul\":690:1164   */\n    tag_14:\n        /* \"#utility.yul\":758:764   */\n      0x00\n        /* \"#utility.yul\":766:772   */\n      0x00\n        /* \"#utility.yul\":815:817   */\n      0x40\n        /* \"#utility.yul\":803:812   */\n      dup4\n        /* \"#utility.yul\":794:801   */\n      dup6\n        /* \"#utility.yul\":790:813   */\n      sub\n        /* \"#utility.yul\":786:818   */\n      slt\n        /* \"#utility.yul\":783:902   */\n      iszero\n      tag_81\n      jumpi\n        /* \"#utility.yul\":821:900   */\n      tag_82\n      tag_60\n      jump\t// in\n    tag_82:\n        /* \"#utility.yul\":783:902   */\n    tag_81:\n        /* \"#utility.yul\":941:942   */\n      0x00\n        /* \"#utility.yul\":966:1019   */\n      tag_83\n        /* \"#utility.yul\":1011:1018   */\n      dup6\n        /* \"#utility.yul\":1002:1008   */\n      dup3\n        /* \"#utility.yul\":991:1000   */\n      dup7\n        /* \"#utility.yul\":987:1009   */\n      add\n        /* \"#utility.yul\":966:1019   */\n      tag_64\n      jump\t// in\n    tag_83:\n        /* \"#utility.yul\":956:1019   */\n      swap3\n      pop\n        /* \"#utility.yul\":912:1029   */\n      pop\n        /* \"#utility.yul\":1068:1070   */\n      0x20\n        /* \"#utility.yul\":1094:1147   */\n      tag_84\n        /* \"#utility.yul\":1139:1146   */\n      dup6\n        /* \"#utility.yul\":1130:1136   */\n      dup3\n        /* \"#utility.yul\":1119:1128   */\n      dup7\n        /* \"#utility.yul\":1115:1137   */\n      add\n        /* \"#utility.yul\":1094:1147   */\n      tag_64\n      jump\t// in\n    tag_84:\n        /* \"#utility.yul\":1084:1147   */\n      swap2\n      pop\n        /* \"#utility.yul\":1039:1157   */\n      pop\n        /* \"#utility.yul\":690:1164   */\n      swap3\n      pop\n      swap3\n      swap1\n      pop\n      jump\t// out\n        /* \"#utility.yul\":1170:1288   */\n    tag_65:\n        /* \"#utility.yul\":1257:1281   */\n      tag_86\n        /* \"#utility.yul\":1275:1280   */\n      dup2\n        /* \"#utility.yul\":1257:1281   */\n      tag_62\n      jump\t// in\n    tag_86:\n        /* \"#utility.yul\":1252:1255   */\n      dup3\n        /* \"#utility.yul\":1245:1282   */\n      mstore\n        /* \"#utility.yul\":1170:1288   */\n      pop\n      pop\n      jump\t// out\n        /* \"#utility.yul\":1294:1516   */\n    tag_17:\n        /* \"#utility.yul\":1387:1391   */\n      0x00\n        /* \"#utility.yul\":1425:1427   */\n      0x20\n        /* \"#utility.yul\":1414:1423   */\n      dup3\n        /* \"#utility.yul\":1410:1428   */\n      add\n        /* \"#utility.yul\":1402:1428   */\n      swap1\n      pop\n        /* \"#utility.yul\":1438:1509   */\n      tag_88\n        /* \"#utility.yul\":1506:1507   */\n      0x00\n        /* \"#utility.yul\":1495:1504   */\n      dup4\n        /* \"#utility.yul\":1491:1508   */\n      add\n        /* \"#utility.yul\":1482:1488   */\n      dup5\n        /* \"#utility.yul\":1438:1509   */\n      tag_65\n      jump\t// in\n    tag_88:\n        /* \"#utility.yul\":1294:1516   */\n      swap3\n      swap2\n      pop\n      pop\n      jump\t// out\n        /* \"#utility.yul\":1522:1691   */\n    tag_66:\n        /* \"#utility.yul\":1606:1617   */\n      0x00\n        /* \"#utility.yul\":1640:1646   */\n      dup3\n        /* \"#utility.yul\":1635:1638   */\n      dup3\n        /* \"#utility.yul\":1628:1647   */\n      mstore\n        /* \"#utility.yul\":1680:1684   */\n      0x20\n        /* \"#utility.yul\":1675:1678   */\n      dup3\n        /* \"#utility.yul\":1671:1685   */\n      add\n        /* \"#utility.yul\":1656:1685   */\n      swap1\n      pop\n        /* \"#utility.yul\":1522:1691   */\n      swap3\n      swap2\n      pop\n      pop\n      jump\t// out\n        /* \"#utility.yul\":1697:1917   */\n    tag_67:\n        /* \"#utility.yul\":1837:1871   */\n      0x4e6f206573207065726d6574656e20726573756c74617473206e656761746975\n        /* \"#utility.yul\":1833:1834   */\n      0x00\n        /* \"#utility.yul\":1825:1831   */\n      dup3\n        /* \"#utility.yul\":1821:1835   */\n      add\n        /* \"#utility.yul\":1814:1872   */\n      mstore\n        /* \"#utility.yul\":1906:1909   */\n      0x7300000000000000000000000000000000000000000000000000000000000000\n        /* \"#utility.yul\":1901:1903   */\n      0x20\n        /* \"#utility.yul\":1893:1899   */\n      dup3\n        /* \"#utility.yul\":1889:1904   */\n      add\n        /* \"#utility.yul\":1882:1910   */\n      mstore\n        /* \"#utility.yul\":1697:1917   */\n      pop\n      jump\t// out\n        /* \"#utility.yul\":1923:2289   */\n    tag_68:\n        /* \"#utility.yul\":2065:2068   */\n      0x00\n        /* \"#utility.yul\":2086:2153   */\n      tag_92\n        /* \"#utility.yul\":2150:2152   */\n      0x21\n        /* \"#utility.yul\":2145:2148   */\n      dup4\n        /* \"#utility.yul\":2086:2153   */\n      tag_66\n      jump\t// in\n    tag_92:\n        /* \"#utility.yul\":2079:2153   */\n      swap2\n      pop\n        /* \"#utility.yul\":2162:2255   */\n      tag_93\n        /* \"#utility.yul\":2251:2254   */\n      dup3\n        /* \"#utility.yul\":2162:2255   */\n      tag_67\n      jump\t// in\n    tag_93:\n        /* \"#utility.yul\":2280:2282   */\n      0x40\n        /* \"#utility.yul\":2275:2278   */\n      dup3\n        /* \"#utility.yul\":2271:2283   */\n      add\n        /* \"#utility.yul\":2264:2283   */\n      swap1\n      pop\n        /* \"#utility.yul\":1923:2289   */\n      swap2\n      swap1\n      pop\n      jump\t// out\n        /* \"#utility.yul\":2295:2714   */\n    tag_43:\n        /* \"#utility.yul\":2461:2465   */\n      0x00\n        /* \"#utility.yul\":2499:2501   */\n      0x20\n        /* \"#utility.yul\":2488:2497   */\n      dup3\n        /* \"#utility.yul\":2484:2502   */\n      add\n        /* \"#utility.yul\":2476:2502   */\n      swap1\n      pop\n        /* \"#utility.yul\":2548:2557   */\n      dup2\n        /* \"#utility.yul\":2542:2546   */\n      dup2\n        /* \"#utility.yul\":2538:2558   */\n      sub\n        /* \"#utility.yul\":2534:2535   */\n      0x00\n        /* \"#utility.yul\":2523:2532   */\n      dup4\n        /* \"#utility.yul\":2519:2536   */\n      add\n        /* \"#utility.yul\":2512:2559   */\n      mstore\n        /* \"#utility.yul\":2576:2707   */\n      tag_95\n        /* \"#utility.yul\":2702:2706   */\n      dup2\n        /* \"#utility.yul\":2576:2707   */\n      tag_68\n      jump\t// in\n    tag_95:\n        /* \"#utility.yul\":2568:2707   */\n      swap1\n      pop\n        /* \"#utility.yul\":2295:2714   */\n      swap2\n      swap1\n      pop\n      jump\t// out\n        /* \"#utility.yul\":2720:2900   */\n    tag_69:\n        /* \"#utility.yul\":2768:2845   */\n      0x4e487b7100000000000000000000000000000000000000000000000000000000\n        /* \"#utility.yul\":2765:2766   */\n      0x00\n        /* \"#utility.yul\":2758:2846   */\n      mstore\n        /* \"#utility.yul\":2865:2869   */\n      0x11\n        /* \"#utility.yul\":2862:2863   */\n      0x04\n        /* \"#utility.yul\":2855:2870   */\n      mstore\n        /* \"#utility.yul\":2889:2893   */\n      0x24\n        /* \"#utility.yul\":2886:2887   */\n      0x00\n        /* \"#utility.yul\":2879:2894   */\n      revert\n        /* \"#utility.yul\":2906:3100   */\n    tag_45:\n        /* \"#utility.yul\":2946:2950   */\n      0x00\n        /* \"#utility.yul\":2966:2986   */\n      tag_98\n        /* \"#utility.yul\":2984:2985   */\n      dup3\n        /* \"#utility.yul\":2966:2986   */\n      tag_62\n      jump\t// in\n    tag_98:\n        /* \"#utility.yul\":2961:2986   */\n      swap2\n      pop\n        /* \"#utility.yul\":3000:3020   */\n      tag_99\n        /* \"#utility.yul\":3018:3019   */\n      dup4\n        /* \"#utility.yul\":3000:3020   */\n      tag_62\n      jump\t// in\n    tag_99:\n        /* \"#utility.yul\":2995:3020   */\n      swap3\n      pop\n        /* \"#utility.yul\":3044:3045   */\n      dup3\n        /* \"#utility.yul\":3041:3042   */\n      dup3\n        /* \"#utility.yul\":3037:3046   */\n      sub\n        /* \"#utility.yul\":3029:3046   */\n      swap1\n      pop\n        /* \"#utility.yul\":3068:3069   */\n      dup2\n        /* \"#utility.yul\":3062:3066   */\n      dup2\n        /* \"#utility.yul\":3059:3070   */\n      gt\n        /* \"#utility.yul\":3056:3093   */\n      iszero\n      tag_100\n      jumpi\n        /* \"#utility.yul\":3073:3091   */\n      tag_101\n      tag_69\n      jump\t// in\n    tag_101:\n        /* \"#utility.yul\":3056:3093   */\n    tag_100:\n        /* \"#utility.yul\":2906:3100   */\n      swap3\n      swap2\n      pop\n      pop\n      jump\t// out\n        /* \"#utility.yul\":3106:3339   */\n    tag_47:\n        /* \"#utility.yul\":3145:3148   */\n      0x00\n        /* \"#utility.yul\":3168:3192   */\n      tag_103\n        /* \"#utility.yul\":3186:3191   */\n      dup3\n        /* \"#utility.yul\":3168:3192   */\n      tag_62\n      jump\t// in\n    tag_103:\n        /* \"#utility.yul\":3159:3192   */\n      swap2\n      pop\n        /* \"#utility.yul\":3214:3280   */\n      0xffffffffffffffffffffffffffffffffffffffffffffffffffffffffffffffff\n        /* \"#utility.yul\":3207:3212   */\n      dup3\n        /* \"#utility.yul\":3204:3281   */\n      sub\n        /* \"#utility.yul\":3201:3304   */\n      tag_104\n      jumpi\n        /* \"#utility.yul\":3284:3302   */\n      tag_105\n      tag_69\n      jump\t// in\n    tag_105:\n        /* \"#utility.yul\":3201:3304   */\n    tag_104:\n        /* \"#utility.yul\":3331:3332   */\n      0x01\n        /* \"#utility.yul\":3324:3329   */\n      dup3\n        /* \"#utility.yul\":3320:3333   */\n      add\n        /* \"#utility.yul\":3313:3333   */\n      swap1\n      pop\n        /* \"#utility.yul\":3106:3339   */\n      swap2\n      swap1\n      pop\n      jump\t// out\n        /* \"#utility.yul\":3345:3755   */\n    tag_53:\n        /* \"#utility.yul\":3385:3392   */\n      0x00\n        /* \"#utility.yul\":3408:3428   */\n      tag_107\n        /* \"#utility.yul\":3426:3427   */\n      dup3\n        /* \"#utility.yul\":3408:3428   */\n      tag_62\n      jump\t// in\n    tag_107:\n        /* \"#utility.yul\":3403:3428   */\n      swap2\n      pop\n        /* \"#utility.yul\":3442:3462   */\n      tag_108\n        /* \"#utility.yul\":3460:3461   */\n      dup4\n        /* \"#utility.yul\":3442:3462   */\n      tag_62\n      jump\t// in\n    tag_108:\n        /* \"#utility.yul\":3437:3462   */\n      swap3\n      pop\n        /* \"#utility.yul\":3497:3498   */\n      dup3\n        /* \"#utility.yul\":3494:3495   */\n      dup3\n        /* \"#utility.yul\":3490:3499   */\n      mul\n        /* \"#utility.yul\":3519:3549   */\n      tag_109\n        /* \"#utility.yul\":3537:3548   */\n      dup2\n        /* \"#utility.yul\":3519:3549   */\n      tag_62\n      jump\t// in\n    tag_109:\n        /* \"#utility.yul\":3508:3549   */\n      swap2\n      pop\n        /* \"#utility.yul\":3698:3699   */\n      dup3\n        /* \"#utility.yul\":3689:3696   */\n      dup3\n        /* \"#utility.yul\":3685:3700   */\n      div\n        /* \"#utility.yul\":3682:3683   */\n      dup5\n        /* \"#utility.yul\":3679:3701   */\n      eq\n        /* \"#utility.yul\":3659:3660   */\n      dup4\n        /* \"#utility.yul\":3652:3661   */\n      iszero\n        /* \"#utility.yul\":3632:3715   */\n      or\n        /* \"#utility.yul\":3609:3748   */\n      tag_110\n      jumpi\n        /* \"#utility.yul\":3728:3746   */\n      tag_111\n      tag_69\n      jump\t// in\n    tag_111:\n        /* \"#utility.yul\":3609:3748   */\n    tag_110:\n        /* \"#utility.yul\":3393:3755   */\n      pop\n        /* \"#utility.yul\":3345:3755   */\n      swap3\n      swap2\n      pop\n      pop\n      jump\t// out\n        /* \"#utility.yul\":3761:3952   */\n    tag_57:\n        /* \"#utility.yul\":3801:3804   */\n      0x00\n        /* \"#utility.yul\":3820:3840   */\n      tag_113\n        /* \"#utility.yul\":3838:3839   */\n      dup3\n        /* \"#utility.yul\":3820:3840   */\n      tag_62\n      jump\t// in\n    tag_113:\n        /* \"#utility.yul\":3815:3840   */\n      swap2\n      pop\n        /* \"#utility.yul\":3854:3874   */\n      tag_114\n        /* \"#utility.yul\":3872:3873   */\n      dup4\n        /* \"#utility.yul\":3854:3874   */\n      tag_62\n      jump\t// in\n    tag_114:\n        /* \"#utility.yul\":3849:3874   */\n      swap3\n      pop\n        /* \"#utility.yul\":3897:3898   */\n      dup3\n        /* \"#utility.yul\":3894:3895   */\n      dup3\n        /* \"#utility.yul\":3890:3899   */\n      add\n        /* \"#utility.yul\":3883:3899   */\n      swap1\n      pop\n        /* \"#utility.yul\":3918:3921   */\n      dup1\n        /* \"#utility.yul\":3915:3916   */\n      dup3\n        /* \"#utility.yul\":3912:3922   */\n      gt\n        /* \"#utility.yul\":3909:3945   */\n      iszero\n      tag_115\n      jumpi\n        /* \"#utility.yul\":3925:3943   */\n      tag_116\n      tag_69\n      jump\t// in\n    tag_116:\n        /* \"#utility.yul\":3909:3945   */\n    tag_115:\n        /* \"#utility.yul\":3761:3952   */\n      swap3\n      swap2\n      pop\n      pop\n      jump\t// out\n\n    auxdata: 0xa26469706673582212202d19374783510c6e9e48fb241b5df8fbc53cb181e5a9eeaf567e934835d9a1fb64736f6c63430008220033\n}\n",
				"bytecode": {
					"linkReferences": {},
					"object": "6080604052348015600e575f5ffd5b5061052f8061001c5f395ff3fe608060405234801561000f575f5ffd5b5060043610610086575f3560e01c8063e13e85f711610059578063e13e85f714610100578063e44d50be1461011e578063fbf188a21461013c578063fd61371e1461016c57610086565b80630b141a581461008a5780639341a733146100ba5780639aac1c65146100d8578063c0fea5d7146100f6575b5f5ffd5b6100a4600480360381019061009f91906102da565b61019c565b6040516100b19190610327565b60405180910390f35b6100c2610212565b6040516100cf9190610327565b60405180910390f35b6100e0610217565b6040516100ed9190610327565b60405180910390f35b6100fe61021f565b005b61010861022e565b6040516101159190610327565b60405180910390f35b610126610237565b6040516101339190610327565b60405180910390f35b610156600480360381019061015191906102da565b61023d565b6040516101639190610327565b60405180910390f35b610186600480360381019061018191906102da565b610270565b6040516101939190610327565b60405180910390f35b5f818310156101e0576040517f08c379a00000000000000000000000000000000000000000000000000000000081526004016101d7906103c0565b60405180910390fd5b81836101ec919061040b565b5f8190555060015f8154809291906102039061043e565b91905055505f54905092915050565b5f5481565b5f5f54905090565b5f5f819055505f600181905550565b5f600154905090565b60015481565b5f818361024a9190610485565b5f8190555060015f8154809291906102619061043e565b91905055505f54905092915050565b5f818361027d91906104c6565b5f8190555060015f8154809291906102949061043e565b91905055505f54905092915050565b5f5ffd5b5f819050919050565b6102b9816102a7565b81146102c3575f5ffd5b50565b5f813590506102d4816102b0565b92915050565b5f5f604083850312156102f0576102ef6102a3565b5b5f6102fd858286016102c6565b925050602061030e858286016102c6565b9150509250929050565b610321816102a7565b82525050565b5f60208201905061033a5f830184610318565b92915050565b5f82825260208201905092915050565b7f4e6f206573207065726d6574656e20726573756c74617473206e6567617469755f8201527f7300000000000000000000000000000000000000000000000000000000000000602082015250565b5f6103aa602183610340565b91506103b582610350565b604082019050919050565b5f6020820190508181035f8301526103d78161039e565b9050919050565b7f4e487b71000000000000000000000000000000000000000000000000000000005f52601160045260245ffd5b5f610415826102a7565b9150610420836102a7565b9250828203905081811115610438576104376103de565b5b92915050565b5f610448826102a7565b91507fffffffffffffffffffffffffffffffffffffffffffffffffffffffffffffffff820361047a576104796103de565b5b600182019050919050565b5f61048f826102a7565b915061049a836102a7565b92508282026104a8816102a7565b915082820484148315176104bf576104be6103de565b5b5092915050565b5f6104d0826102a7565b91506104db836102a7565b92508282019050808211156104f3576104f26103de565b5b9291505056fea26469706673582212202d19374783510c6e9e48fb241b5df8fbc53cb181e5a9eeaf567e934835d9a1fb64736f6c63430008220033",
					"opcodes": "PUSH1 0x80 PUSH1 0x40 MSTORE CALLVALUE DUP1 ISZERO PUSH1 0xE JUMPI PUSH0 PUSH0 REVERT JUMPDEST POP PUSH2 0x52F DUP1 PUSH2 0x1C PUSH0 CODECOPY PUSH0 RETURN INVALID PUSH1 0x80 PUSH1 0x40 MSTORE CALLVALUE DUP1 ISZERO PUSH2 0xF JUMPI PUSH0 PUSH0 REVERT JUMPDEST POP PUSH1 0x4 CALLDATASIZE LT PUSH2 0x86 JUMPI PUSH0 CALLDATALOAD PUSH1 0xE0 SHR DUP1 PUSH4 0xE13E85F7 GT PUSH2 0x59 JUMPI DUP1 PUSH4 0xE13E85F7 EQ PUSH2 0x100 JUMPI DUP1 PUSH4 0xE44D50BE EQ PUSH2 0x11E JUMPI DUP1 PUSH4 0xFBF188A2 EQ PUSH2 0x13C JUMPI DUP1 PUSH4 0xFD61371E EQ PUSH2 0x16C JUMPI PUSH2 0x86 JUMP JUMPDEST DUP1 PUSH4 0xB141A58 EQ PUSH2 0x8A JUMPI DUP1 PUSH4 0x9341A733 EQ PUSH2 0xBA JUMPI DUP1 PUSH4 0x9AAC1C65 EQ PUSH2 0xD8 JUMPI DUP1 PUSH4 0xC0FEA5D7 EQ PUSH2 0xF6 JUMPI JUMPDEST PUSH0 PUSH0 REVERT JUMPDEST PUSH2 0xA4 PUSH1 0x4 DUP1 CALLDATASIZE SUB DUP2 ADD SWAP1 PUSH2 0x9F SWAP2 SWAP1 PUSH2 0x2DA JUMP JUMPDEST PUSH2 0x19C JUMP JUMPDEST PUSH1 0x40 MLOAD PUSH2 0xB1 SWAP2 SWAP1 PUSH2 0x327 JUMP JUMPDEST PUSH1 0x40 MLOAD DUP1 SWAP2 SUB SWAP1 RETURN JUMPDEST PUSH2 0xC2 PUSH2 0x212 JUMP JUMPDEST PUSH1 0x40 MLOAD PUSH2 0xCF SWAP2 SWAP1 PUSH2 0x327 JUMP JUMPDEST PUSH1 0x40 MLOAD DUP1 SWAP2 SUB SWAP1 RETURN JUMPDEST PUSH2 0xE0 PUSH2 0x217 JUMP JUMPDEST PUSH1 0x40 MLOAD PUSH2 0xED SWAP2 SWAP1 PUSH2 0x327 JUMP JUMPDEST PUSH1 0x40 MLOAD DUP1 SWAP2 SUB SWAP1 RETURN JUMPDEST PUSH2 0xFE PUSH2 0x21F JUMP JUMPDEST STOP JUMPDEST PUSH2 0x108 PUSH2 0x22E JUMP JUMPDEST PUSH1 0x40 MLOAD PUSH2 0x115 SWAP2 SWAP1 PUSH2 0x327 JUMP JUMPDEST PUSH1 0x40 MLOAD DUP1 SWAP2 SUB SWAP1 RETURN JUMPDEST PUSH2 0x126 PUSH2 0x237 JUMP JUMPDEST PUSH1 0x40 MLOAD PUSH2 0x133 SWAP2 SWAP1 PUSH2 0x327 JUMP JUMPDEST PUSH1 0x40 MLOAD DUP1 SWAP2 SUB SWAP1 RETURN JUMPDEST PUSH2 0x156 PUSH1 0x4 DUP1 CALLDATASIZE SUB DUP2 ADD SWAP1 PUSH2 0x151 SWAP2 SWAP1 PUSH2 0x2DA JUMP JUMPDEST PUSH2 0x23D JUMP JUMPDEST PUSH1 0x40 MLOAD PUSH2 0x163 SWAP2 SWAP1 PUSH2 0x327 JUMP JUMPDEST PUSH1 0x40 MLOAD DUP1 SWAP2 SUB SWAP1 RETURN JUMPDEST PUSH2 0x186 PUSH1 0x4 DUP1 CALLDATASIZE SUB DUP2 ADD SWAP1 PUSH2 0x181 SWAP2 SWAP1 PUSH2 0x2DA JUMP JUMPDEST PUSH2 0x270 JUMP JUMPDEST PUSH1 0x40 MLOAD PUSH2 0x193 SWAP2 SWAP1 PUSH2 0x327 JUMP JUMPDEST PUSH1 0x40 MLOAD DUP1 SWAP2 SUB SWAP1 RETURN JUMPDEST PUSH0 DUP2 DUP4 LT ISZERO PUSH2 0x1E0 JUMPI PUSH1 0x40 MLOAD PUSH32 0x8C379A000000000000000000000000000000000000000000000000000000000 DUP2 MSTORE PUSH1 0x4 ADD PUSH2 0x1D7 SWAP1 PUSH2 0x3C0 JUMP JUMPDEST PUSH1 0x40 MLOAD DUP1 SWAP2 SUB SWAP1 REVERT JUMPDEST DUP2 DUP4 PUSH2 0x1EC SWAP2 SWAP1 PUSH2 0x40B JUMP JUMPDEST PUSH0 DUP2 SWAP1 SSTORE POP PUSH1 0x1 PUSH0 DUP2 SLOAD DUP1 SWAP3 SWAP2 SWAP1 PUSH2 0x203 SWAP1 PUSH2 0x43E JUMP JUMPDEST SWAP2 SWAP1 POP SSTORE POP PUSH0 SLOAD SWAP1 POP SWAP3 SWAP2 POP POP JUMP JUMPDEST PUSH0 SLOAD DUP2 JUMP JUMPDEST PUSH0 PUSH0 SLOAD SWAP1 POP SWAP1 JUMP JUMPDEST PUSH0 PUSH0 DUP2 SWAP1 SSTORE POP PUSH0 PUSH1 0x1 DUP2 SWAP1 SSTORE POP JUMP JUMPDEST PUSH0 PUSH1 0x1 SLOAD SWAP1 POP SWAP1 JUMP JUMPDEST PUSH1 0x1 SLOAD DUP2 JUMP JUMPDEST PUSH0 DUP2 DUP4 PUSH2 0x24A SWAP2 SWAP1 PUSH2 0x485 JUMP JUMPDEST PUSH0 DUP2 SWAP1 SSTORE POP PUSH1 0x1 PUSH0 DUP2 SLOAD DUP1 SWAP3 SWAP2 SWAP1 PUSH2 0x261 SWAP1 PUSH2 0x43E JUMP JUMPDEST SWAP2 SWAP1 POP SSTORE POP PUSH0 SLOAD SWAP1 POP SWAP3 SWAP2 POP POP JUMP JUMPDEST PUSH0 DUP2 DUP4 PUSH2 0x27D SWAP2 SWAP1 PUSH2 0x4C6 JUMP JUMPDEST PUSH0 DUP2 SWAP1 SSTORE POP PUSH1 0x1 PUSH0 DUP2 SLOAD DUP1 SWAP3 SWAP2 SWAP1 PUSH2 0x294 SWAP1 PUSH2 0x43E JUMP JUMPDEST SWAP2 SWAP1 POP SSTORE POP PUSH0 SLOAD SWAP1 POP SWAP3 SWAP2 POP POP JUMP JUMPDEST PUSH0 PUSH0 REVERT JUMPDEST PUSH0 DUP2 SWAP1 POP SWAP2 SWAP1 POP JUMP JUMPDEST PUSH2 0x2B9 DUP2 PUSH2 0x2A7 JUMP JUMPDEST DUP2 EQ PUSH2 0x2C3 JUMPI PUSH0 PUSH0 REVERT JUMPDEST POP JUMP JUMPDEST PUSH0 DUP2 CALLDATALOAD SWAP1 POP PUSH2 0x2D4 DUP2 PUSH2 0x2B0 JUMP JUMPDEST SWAP3 SWAP2 POP POP JUMP JUMPDEST PUSH0 PUSH0 PUSH1 0x40 DUP4 DUP6 SUB SLT ISZERO PUSH2 0x2F0 JUMPI PUSH2 0x2EF PUSH2 0x2A3 JUMP JUMPDEST JUMPDEST PUSH0 PUSH2 0x2FD DUP6 DUP3 DUP7 ADD PUSH2 0x2C6 JUMP JUMPDEST SWAP3 POP POP PUSH1 0x20 PUSH2 0x30E DUP6 DUP3 DUP7 ADD PUSH2 0x2C6 JUMP JUMPDEST SWAP2 POP POP SWAP3 POP SWAP3 SWAP1 POP JUMP JUMPDEST PUSH2 0x321 DUP2 PUSH2 0x2A7 JUMP JUMPDEST DUP3 MSTORE POP POP JUMP JUMPDEST PUSH0 PUSH1 0x20 DUP3 ADD SWAP1 POP PUSH2 0x33A PUSH0 DUP4 ADD DUP5 PUSH2 0x318 JUMP JUMPDEST SWAP3 SWAP2 POP POP JUMP JUMPDEST PUSH0 DUP3 DUP3 MSTORE PUSH1 0x20 DUP3 ADD SWAP1 POP SWAP3 SWAP2 POP POP JUMP JUMPDEST PUSH32 0x4E6F206573207065726D6574656E20726573756C74617473206E656761746975 PUSH0 DUP3 ADD MSTORE PUSH32 0x7300000000000000000000000000000000000000000000000000000000000000 PUSH1 0x20 DUP3 ADD MSTORE POP JUMP JUMPDEST PUSH0 PUSH2 0x3AA PUSH1 0x21 DUP4 PUSH2 0x340 JUMP JUMPDEST SWAP2 POP PUSH2 0x3B5 DUP3 PUSH2 0x350 JUMP JUMPDEST PUSH1 0x40 DUP3 ADD SWAP1 POP SWAP2 SWAP1 POP JUMP JUMPDEST PUSH0 PUSH1 0x20 DUP3 ADD SWAP1 POP DUP2 DUP2 SUB PUSH0 DUP4 ADD MSTORE PUSH2 0x3D7 DUP2 PUSH2 0x39E JUMP JUMPDEST SWAP1 POP SWAP2 SWAP1 POP JUMP JUMPDEST PUSH32 0x4E487B7100000000000000000000000000000000000000000000000000000000 PUSH0 MSTORE PUSH1 0x11 PUSH1 0x4 MSTORE PUSH1 0x24 PUSH0 REVERT JUMPDEST PUSH0 PUSH2 0x415 DUP3 PUSH2 0x2A7 JUMP JUMPDEST SWAP2 POP PUSH2 0x420 DUP4 PUSH2 0x2A7 JUMP JUMPDEST SWAP3 POP DUP3 DUP3 SUB SWAP1 POP DUP2 DUP2 GT ISZERO PUSH2 0x438 JUMPI PUSH2 0x437 PUSH2 0x3DE JUMP JUMPDEST JUMPDEST SWAP3 SWAP2 POP POP JUMP JUMPDEST PUSH0 PUSH2 0x448 DUP3 PUSH2 0x2A7 JUMP JUMPDEST SWAP2 POP PUSH32 0xFFFFFFFFFFFFFFFFFFFFFFFFFFFFFFFFFFFFFFFFFFFFFFFFFFFFFFFFFFFFFFFF DUP3 SUB PUSH2 0x47A JUMPI PUSH2 0x479 PUSH2 0x3DE JUMP JUMPDEST JUMPDEST PUSH1 0x1 DUP3 ADD SWAP1 POP SWAP2 SWAP1 POP JUMP JUMPDEST PUSH0 PUSH2 0x48F DUP3 PUSH2 0x2A7 JUMP JUMPDEST SWAP2 POP PUSH2 0x49A DUP4 PUSH2 0x2A7 JUMP JUMPDEST SWAP3 POP DUP3 DUP3 MUL PUSH2 0x4A8 DUP2 PUSH2 0x2A7 JUMP JUMPDEST SWAP2 POP DUP3 DUP3 DIV DUP5 EQ DUP4 ISZERO OR PUSH2 0x4BF JUMPI PUSH2 0x4BE PUSH2 0x3DE JUMP JUMPDEST JUMPDEST POP SWAP3 SWAP2 POP POP JUMP JUMPDEST PUSH0 PUSH2 0x4D0 DUP3 PUSH2 0x2A7 JUMP JUMPDEST SWAP2 POP PUSH2 0x4DB DUP4 PUSH2 0x2A7 JUMP JUMPDEST SWAP3 POP DUP3 DUP3 ADD SWAP1 POP DUP1 DUP3 GT ISZERO PUSH2 0x4F3 JUMPI PUSH2 0x4F2 PUSH2 0x3DE JUMP JUMPDEST JUMPDEST SWAP3 SWAP2 POP POP JUMP INVALID LOG2 PUSH5 0x6970667358 0x22 SLT KECCAK256 0x2D NOT CALLDATACOPY SELFBALANCE DUP4 MLOAD 0xC PUSH15 0x9E48FB241B5DF8FBC53CB181E5A9EE 0xAF JUMP PUSH31 0x934835D9A1FB64736F6C634300082200330000000000000000000000000000 "
				},
				"gasEstimates": {
					"creation": {
						"codeDepositCost": "265400",
						"executionCost": "304",
						"totalCost": "265704"
					},
					"external": {
						"historialOperacions()": "2447",
						"multiplicar(uint256,uint256)": "infinite",
						"obtenirHistorial()": "2432",
						"obtenirUltimResultat()": "2476",
						"resetear()": "10235",
						"restar(uint256,uint256)": "infinite",
						"sumar(uint256,uint256)": "infinite",
						"ultimResultat()": "2447"
					}
				},
				"methodIdentifiers": {
					"historialOperacions()": "e44d50be",
					"multiplicar(uint256,uint256)": "fbf188a2",
					"obtenirHistorial()": "e13e85f7",
					"obtenirUltimResultat()": "9aac1c65",
					"resetear()": "c0fea5d7",
					"restar(uint256,uint256)": "0b141a58",
					"sumar(uint256,uint256)": "fd61371e",
					"ultimResultat()": "9341a733"
				}
			},
			"storageLayout": {
				"storage": [
					{
						"astId": 3,
						"contract": "Sessió 1/03_CalculadoraBasica.sol:CalculadoraBasica",
						"label": "ultimResultat",
						"offset": 0,
						"slot": "0",
						"type": "t_uint256"
					},
					{
						"astId": 5,
						"contract": "Sessió 1/03_CalculadoraBasica.sol:CalculadoraBasica",
						"label": "historialOperacions",
						"offset": 0,
						"slot": "1",
						"type": "t_uint256"
					}
				],
				"types": {
					"t_uint256": {
						"encoding": "inplace",
						"label": "uint256",
						"numberOfBytes": "32"
					}
				}
			},
			"userdoc": {
				"kind": "user",
				"methods": {},
				"version": 1
			}
		}
	}
}