{
	"data": {
		"bytecode": {
			"linkReferences": {},
			"object": "6080604052348015600e575f5ffd5b505f5f8190555061049f806100225f395ff3fe608060405234801561000f575f5ffd5b5060043610610060575f3560e01c806346d70f5b146100645780635d5332471461008257806391607a99146100a0578063a1058dd8146100aa578063af309f96146100b4578063d8552f5b146100d2575b5f5ffd5b61006c6100f0565b60405161007991906101f3565b60405180910390f35b61008a6100f4565b60405161009791906101f3565b60405180910390f35b6100a86100f9565b005b6100b2610157565b005b6100bc6101b4565b6040516100c991906101f3565b60405180910390f35b6100da6101d3565b6040516100e791906101f3565b60405180910390f35b5f81565b606481565b60645f541061013d576040517f08c379a00000000000000000000000000000000000000000000000000000000081526004016101349061028c565b60405180910390fd5b60015f5f82825461014e91906102d7565b92505081905550565b5f5f541161019a576040517f08c379a00000000000000000000000000000000000000000000000000000000081526004016101919061037a565b60405180910390fd5b60015f5f8282546101ab9190610398565b92505081905550565b5f6064805f546101c491906103cb565b6101ce9190610439565b905090565b5f5f54905090565b5f819050919050565b6101ed816101db565b82525050565b5f6020820190506102065f8301846101e4565b92915050565b5f82825260208201905092915050565b7f4e6f20657320706f7420696e6372656d656e7461723a206cc3ad6d6974206dc35f8201527fa078696d206173736f6c69740000000000000000000000000000000000000000602082015250565b5f610276602c8361020c565b91506102818261021c565b604082019050919050565b5f6020820190508181035f8301526102a38161026a565b9050919050565b7f4e487b71000000000000000000000000000000000000000000000000000000005f52601160045260245ffd5b5f6102e1826101db565b91506102ec836101db565b9250828201905080821115610304576103036102aa565b5b92915050565b7f4e6f20657320706f742064656372656d656e7461723a206cc3ad6d6974206dc35f8201527fad6e696d206173736f6c69740000000000000000000000000000000000000000602082015250565b5f610364602c8361020c565b915061036f8261030a565b604082019050919050565b5f6020820190508181035f83015261039181610358565b9050919050565b5f6103a2826101db565b91506103ad836101db565b92508282039050818111156103c5576103c46102aa565b5b92915050565b5f6103d5826101db565b91506103e0836101db565b92508282026103ee816101db565b91508282048414831517610405576104046102aa565b5b5092915050565b7f4e487b71000000000000000000000000000000000000000000000000000000005f52601260045260245ffd5b5f610443826101db565b915061044e836101db565b92508261045e5761045d61040c565b5b82820490509291505056fea2646970667358221220ec45e597c230c1a4564ef173a10d1dfea34ba272a0de36fbfe9d813b6f225d5264736f6c63430008220033",
			"opcodes": "PUSH1 0x80 PUSH1 0x40 MSTORE CALLVALUE DUP1 ISZERO PUSH1 0xE JUMPI PUSH0 PUSH0 REVERT JUMPDEST POP PUSH0 PUSH0 DUP2 SWAP1 SSTORE POP PUSH2 0x49F DUP1 PUSH2 0x22 PUSH0 CODECOPY PUSH0 RETURN INVALID PUSH1 0x80 PUSH1 0x40 MSTORE CALLVALUE DUP1 ISZERO PUSH2 0xF JUMPI PUSH0 PUSH0 REVERT JUMPDEST POP PUSH1 0x4 CALLDATASIZE LT PUSH2 0x60 JUMPI PUSH0 CALLDATALOAD PUSH1 0xE0 SHR DUP1 PUSH4 0x46D70F5B EQ PUSH2 0x64 JUMPI DUP1 PUSH4 0x5D533247 EQ PUSH2 0x82 JUMPI DUP1 PUSH4 0x91607A99 EQ PUSH2 0xA0 JUMPI DUP1 PUSH4 0xA1058DD8 EQ PUSH2 0xAA JUMPI DUP1 PUSH4 0xAF309F96 EQ PUSH2 0xB4 JUMPI DUP1 PUSH4 0xD8552F5B EQ PUSH2 0xD2 JUMPI JUMPDEST PUSH0 PUSH0 REVERT JUMPDEST PUSH2 0x6C PUSH2 0xF0 JUMP JUMPDEST PUSH1 0x40 MLOAD PUSH2 0x79 SWAP2 SWAP1 PUSH2 0x1F3 JUMP JUMPDEST PUSH1 0x40 MLOAD DUP1 SWAP2 SUB SWAP1 RETURN JUMPDEST PUSH2 0x8A PUSH2 0xF4 JUMP JUMPDEST PUSH1 0x40 MLOAD PUSH2 0x97 SWAP2 SWAP1 PUSH2 0x1F3 JUMP JUMPDEST PUSH1 0x40 MLOAD DUP1 SWAP2 SUB SWAP1 RETURN JUMPDEST PUSH2 0xA8 PUSH2 0xF9 JUMP JUMPDEST STOP JUMPDEST PUSH2 0xB2 PUSH2 0x157 JUMP JUMPDEST STOP JUMPDEST PUSH2 0xBC PUSH2 0x1B4 JUMP JUMPDEST PUSH1 0x40 MLOAD PUSH2 0xC9 SWAP2 SWAP1 PUSH2 0x1F3 JUMP JUMPDEST PUSH1 0x40 MLOAD DUP1 SWAP2 SUB SWAP1 RETURN JUMPDEST PUSH2 0xDA PUSH2 0x1D3 JUMP JUMPDEST PUSH1 0x40 MLOAD PUSH2 0xE7 SWAP2 SWAP1 PUSH2 0x1F3 JUMP JUMPDEST PUSH1 0x40 MLOAD DUP1 SWAP2 SUB SWAP1 RETURN JUMPDEST PUSH0 DUP2 JUMP JUMPDEST PUSH1 0x64 DUP2 JUMP JUMPDEST PUSH1 0x64 PUSH0 SLOAD LT PUSH2 0x13D JUMPI PUSH1 0x40 MLOAD PUSH32 0x8C379A000000000000000000000000000000000000000000000000000000000 DUP2 MSTORE PUSH1 0x4 ADD PUSH2 0x134 SWAP1 PUSH2 0x28C JUMP JUMPDEST PUSH1 0x40 MLOAD DUP1 SWAP2 SUB SWAP1 REVERT JUMPDEST PUSH1 0x1 PUSH0 PUSH0 DUP3 DUP3 SLOAD PUSH2 0x14E SWAP2 SWAP1 PUSH2 0x2D7 JUMP JUMPDEST SWAP3 POP POP DUP2 SWAP1 SSTORE POP JUMP JUMPDEST PUSH0 PUSH0 SLOAD GT PUSH2 0x19A JUMPI PUSH1 0x40 MLOAD PUSH32 0x8C379A000000000000000000000000000000000000000000000000000000000 DUP2 MSTORE PUSH1 0x4 ADD PUSH2 0x191 SWAP1 PUSH2 0x37A JUMP JUMPDEST PUSH1 0x40 MLOAD DUP1 SWAP2 SUB SWAP1 REVERT JUMPDEST PUSH1 0x1 PUSH0 PUSH0 DUP3 DUP3 SLOAD PUSH2 0x1AB SWAP2 SWAP1 PUSH2 0x398 JUMP JUMPDEST SWAP3 POP POP DUP2 SWAP1 SSTORE POP JUMP JUMPDEST PUSH0 PUSH1 0x64 DUP1 PUSH0 SLOAD PUSH2 0x1C4 SWAP2 SWAP1 PUSH2 0x3CB JUMP JUMPDEST PUSH2 0x1CE SWAP2 SWAP1 PUSH2 0x439 JUMP JUMPDEST SWAP1 POP SWAP1 JUMP JUMPDEST PUSH0 PUSH0 SLOAD SWAP1 POP SWAP1 JUMP JUMPDEST PUSH0 DUP2 SWAP1 POP SWAP2 SWAP1 POP JUMP JUMPDEST PUSH2 0x1ED DUP2 PUSH2 0x1DB JUMP JUMPDEST DUP3 MSTORE POP POP JUMP JUMPDEST PUSH0 PUSH1 0x20 DUP3 ADD SWAP1 POP PUSH2 0x206 PUSH0 DUP4 ADD DUP5 PUSH2 0x1E4 JUMP JUMPDEST SWAP3 SWAP2 POP POP JUMP JUMPDEST PUSH0 DUP3 DUP3 MSTORE PUSH1 0x20 DUP3 ADD SWAP1 POP SWAP3 SWAP2 POP POP JUMP JUMPDEST PUSH32 0x4E6F20657320706F7420696E6372656D656E7461723A206CC3AD6D6974206DC3 PUSH0 DUP3 ADD MSTORE PUSH32 0xA078696D206173736F6C69740000000000000000000000000000000000000000 PUSH1 0x20 DUP3 ADD MSTORE POP JUMP JUMPDEST PUSH0 PUSH2 0x276 PUSH1 0x2C DUP4 PUSH2 0x20C JUMP JUMPDEST SWAP2 POP PUSH2 0x281 DUP3 PUSH2 0x21C JUMP JUMPDEST PUSH1 0x40 DUP3 ADD SWAP1 POP SWAP2 SWAP1 POP JUMP JUMPDEST PUSH0 PUSH1 0x20 DUP3 ADD SWAP1 POP DUP2 DUP2 SUB PUSH0 DUP4 ADD MSTORE PUSH2 0x2A3 DUP2 PUSH2 0x26A JUMP JUMPDEST SWAP1 POP SWAP2 SWAP1 POP JUMP JUMPDEST PUSH32 0x4E487B7100000000000000000000000000000000000000000000000000000000 PUSH0 MSTORE PUSH1 0x11 PUSH1 0x4 MSTORE PUSH1 0x24 PUSH0 REVERT JUMPDEST PUSH0 PUSH2 0x2E1 DUP3 PUSH2 0x1DB JUMP JUMPDEST SWAP2 POP PUSH2 0x2EC DUP4 PUSH2 0x1DB JUMP JUMPDEST SWAP3 POP DUP3 DUP3 ADD SWAP1 POP DUP1 DUP3 GT ISZERO PUSH2 0x304 JUMPI PUSH2 0x303 PUSH2 0x2AA JUMP JUMPDEST JUMPDEST SWAP3 SWAP2 POP POP JUMP JUMPDEST PUSH32 0x4E6F20657320706F742064656372656D656E7461723A206CC3AD6D6974206DC3 PUSH0 DUP3 ADD MSTORE PUSH32 0xAD6E696D206173736F6C69740000000000000000000000000000000000000000 PUSH1 0x20 DUP3 ADD MSTORE POP JUMP JUMPDEST PUSH0 PUSH2 0x364 PUSH1 0x2C DUP4 PUSH2 0x20C JUMP JUMPDEST SWAP2 POP PUSH2 0x36F DUP3 PUSH2 0x30A JUMP JUMPDEST PUSH1 0x40 DUP3 ADD SWAP1 POP SWAP2 SWAP1 POP JUMP JUMPDEST PUSH0 PUSH1 0x20 DUP3 ADD SWAP1 POP DUP2 DUP2 SUB PUSH0 DUP4 ADD MSTORE PUSH2 0x391 DUP2 PUSH2 0x358 JUMP JUMPDEST SWAP1 POP SWAP2 SWAP1 POP JUMP JUMPDEST PUSH0 PUSH2 0x3A2 DUP3 PUSH2 0x1DB JUMP JUMPDEST SWAP2 POP PUSH2 0x3AD DUP4 PUSH2 0x1DB JUMP JUMPDEST SWAP3 POP DUP3 DUP3 SUB SWAP1 POP DUP2 DUP2 GT ISZERO PUSH2 0x3C5 JUMPI PUSH2 0x3C4 PUSH2 0x2AA JUMP JUMPDEST JUMPDEST SWAP3 SWAP2 POP POP JUMP JUMPDEST PUSH0 PUSH2 0x3D5 DUP3 PUSH2 0x1DB JUMP JUMPDEST SWAP2 POP PUSH2 0x3E0 DUP4 PUSH2 0x1DB JUMP JUMPDEST SWAP3 POP DUP3 DUP3 MUL PUSH2 0x3EE DUP2 PUSH2 0x1DB JUMP JUMPDEST SWAP2 POP DUP3 DUP3 DIV DUP5 EQ DUP4 ISZERO OR PUSH2 0x405 JUMPI PUSH2 0x404 PUSH2 0x2AA JUMP JUMPDEST JUMPDEST POP SWAP3 SWAP2 POP POP JUMP JUMPDEST PUSH32 0x4E487B7100000000000000000000000000000000000000000000000000000000 PUSH0 MSTORE PUSH1 0x12 PUSH1 0x4 MSTORE PUSH1 0x24 PUSH0 REVERT JUMPDEST PUSH0 PUSH2 0x443 DUP3 PUSH2 0x1DB JUMP JUMPDEST SWAP2 POP PUSH2 0x44E DUP4 PUSH2 0x1DB JUMP JUMPDEST SWAP3 POP DUP3 PUSH2 0x45E JUMPI PUSH2 0x45D PUSH2 0x40C JUMP JUMPDEST JUMPDEST DUP3 DUP3 DIV SWAP1 POP SWAP3 SWAP2 POP POP JUMP INVALID LOG2 PUSH5 0x6970667358 0x22 SLT KECCAK256 EOFCREATE 0x45 JUMPF 0x97C2 ADDRESS 0xC1 LOG4 JUMP 0x4E CALL PUSH20 0xA10D1DFEA34BA272A0DE36FBFE9D813B6F225D52 PUSH5 0x736F6C6343 STOP ADDMOD 0x22 STOP CALLER "
		},
		"gasEstimates": {
			"creation": {
				"codeDepositCost": "236600",
				"executionCost": "5285",
				"totalCost": "241885"
			},
			"external": {
				"LIMIT_MAXIM()": "325",
				"LIMIT_MINIM()": "302",
				"decrementar()": "infinite",
				"incrementar()": "infinite",
				"obtenirComptador()": "2519",
				"obtenirPercentatge()": "infinite"
			}
		},
		"methodIdentifiers": {
			"LIMIT_MAXIM()": "5d533247",
			"LIMIT_MINIM()": "46d70f5b",
			"decrementar()": "a1058dd8",
			"incrementar()": "91607a99",
			"obtenirComptador()": "d8552f5b",
			"obtenirPercentatge()": "af309f96"
		}
	},
	"abi": [
		{
			"inputs": [],
			"stateMutability": "nonpayable",
			"type": "constructor"
		},
		{
			"inputs": [],
			"name": "LIMIT_MAXIM",
			"outputs": [
				{
					"internalType": "uint256",
					"name": "",
					"type": "uint256"
				}
			],
			"stateMutability": "view",
			"type": "function"
		},
		{
			"inputs": [],
			"name": "LIMIT_MINIM",
			"outputs": [
				{
					"internalType": "uint256",
					"name": "",
					"type": "uint256"
				}
			],
			"stateMutability": "view",
			"type": "function"
		},
		{
			"inputs": [],
			"name": "decrementar",
			"outputs": [],
			"stateMutability": "nonpayable",
			"type": "function"
		},
		{
			"inputs": [],
			"name": "incrementar",
			"outputs": [],
			"stateMutability": "nonpayable",
			"type": "function"
		},
		{
			"inputs": [],
			"name": "obtenirComptador",
			"outputs": [
				{
					"internalType": "uint256",
					"name": "",
					"type": "uint256"
				}
			],
			"stateMutability": "view",
			"type": "function"
		},
		{
			"inputs": [],
			"name": "obtenirPercentatge",
			"outputs": [
				{
					"internalType": "uint256",
					"name": "",
					"type": "uint256"
				}
			],
			"stateMutability": "view",
			"type": "function"
		}
	]
}